{
  "address": "0x5FbDB2315678afecb367f032d93F642f64180aa3",
  "abi": [
    {
      "inputs": [],
      "stateMutability": "nonpayable",
      "type": "constructor"
    },
    {
      "anonymous": false,
      "inputs": [
        {
          "indexed": true,
          "internalType": "address",
          "name": "owner",
          "type": "address"
        },
        {
          "indexed": true,
          "internalType": "address",
          "name": "approved",
          "type": "address"
        },
        {
          "indexed": true,
          "internalType": "uint256",
          "name": "tokenId",
          "type": "uint256"
        }
      ],
      "name": "Approval",
      "type": "event"
    },
    {
      "anonymous": false,
      "inputs": [
        {
          "indexed": true,
          "internalType": "address",
          "name": "owner",
          "type": "address"
        },
        {
          "indexed": true,
          "internalType": "address",
          "name": "operator",
          "type": "address"
        },
        {
          "indexed": false,
          "internalType": "bool",
          "name": "approved",
          "type": "bool"
        }
      ],
      "name": "ApprovalForAll",
      "type": "event"
    },
    {
      "anonymous": false,
      "inputs": [
        {
          "indexed": true,
          "internalType": "address",
          "name": "previousOwner",
          "type": "address"
        },
        {
          "indexed": true,
          "internalType": "address",
          "name": "newOwner",
          "type": "address"
        }
      ],
      "name": "OwnershipTransferred",
      "type": "event"
    },
    {
      "anonymous": false,
      "inputs": [
        {
          "indexed": true,
          "internalType": "address",
          "name": "from",
          "type": "address"
        },
        {
          "indexed": true,
          "internalType": "address",
          "name": "to",
          "type": "address"
        },
        {
          "indexed": true,
          "internalType": "uint256",
          "name": "tokenId",
          "type": "uint256"
        }
      ],
      "name": "Transfer",
      "type": "event"
    },
    {
      "inputs": [
        {
          "internalType": "address",
          "name": "to",
          "type": "address"
        },
        {
          "internalType": "uint256",
          "name": "tokenId",
          "type": "uint256"
        }
      ],
      "name": "approve",
      "outputs": [],
      "stateMutability": "nonpayable",
      "type": "function"
    },
    {
      "inputs": [
        {
          "internalType": "address",
          "name": "owner",
          "type": "address"
        }
      ],
      "name": "balanceOf",
      "outputs": [
        {
          "internalType": "uint256",
          "name": "",
          "type": "uint256"
        }
      ],
      "stateMutability": "view",
      "type": "function"
    },
    {
      "inputs": [
        {
          "internalType": "uint256",
          "name": "tokenId",
          "type": "uint256"
        }
      ],
      "name": "claim",
      "outputs": [],
      "stateMutability": "nonpayable",
      "type": "function"
    },
    {
      "inputs": [
        {
          "internalType": "uint256",
          "name": "tokenId",
          "type": "uint256"
        }
      ],
      "name": "getApproved",
      "outputs": [
        {
          "internalType": "address",
          "name": "",
          "type": "address"
        }
      ],
      "stateMutability": "view",
      "type": "function"
    },
    {
      "inputs": [
        {
          "internalType": "uint256",
          "name": "tokenId",
          "type": "uint256"
        }
      ],
      "name": "getEight",
      "outputs": [
        {
          "internalType": "uint256",
          "name": "",
          "type": "uint256"
        }
      ],
      "stateMutability": "view",
      "type": "function"
    },
    {
      "inputs": [
        {
          "internalType": "uint256",
          "name": "tokenId",
          "type": "uint256"
        }
      ],
      "name": "getFifth",
      "outputs": [
        {
          "internalType": "uint256",
          "name": "",
          "type": "uint256"
        }
      ],
      "stateMutability": "view",
      "type": "function"
    },
    {
      "inputs": [
        {
          "internalType": "uint256",
          "name": "tokenId",
          "type": "uint256"
        }
      ],
      "name": "getFirst",
      "outputs": [
        {
          "internalType": "uint256",
          "name": "",
          "type": "uint256"
        }
      ],
      "stateMutability": "view",
      "type": "function"
    },
    {
      "inputs": [
        {
          "internalType": "uint256",
          "name": "tokenId",
          "type": "uint256"
        }
      ],
      "name": "getFourth",
      "outputs": [
        {
          "internalType": "uint256",
          "name": "",
          "type": "uint256"
        }
      ],
      "stateMutability": "view",
      "type": "function"
    },
    {
      "inputs": [
        {
          "internalType": "uint256",
          "name": "tokenId",
          "type": "uint256"
        }
      ],
      "name": "getSecond",
      "outputs": [
        {
          "internalType": "uint256",
          "name": "",
          "type": "uint256"
        }
      ],
      "stateMutability": "view",
      "type": "function"
    },
    {
      "inputs": [
        {
          "internalType": "uint256",
          "name": "tokenId",
          "type": "uint256"
        }
      ],
      "name": "getSeventh",
      "outputs": [
        {
          "internalType": "uint256",
          "name": "",
          "type": "uint256"
        }
      ],
      "stateMutability": "view",
      "type": "function"
    },
    {
      "inputs": [
        {
          "internalType": "uint256",
          "name": "tokenId",
          "type": "uint256"
        }
      ],
      "name": "getSixth",
      "outputs": [
        {
          "internalType": "uint256",
          "name": "",
          "type": "uint256"
        }
      ],
      "stateMutability": "view",
      "type": "function"
    },
    {
      "inputs": [
        {
          "internalType": "uint256",
          "name": "tokenId",
          "type": "uint256"
        }
      ],
      "name": "getThird",
      "outputs": [
        {
          "internalType": "uint256",
          "name": "",
          "type": "uint256"
        }
      ],
      "stateMutability": "view",
      "type": "function"
    },
    {
      "inputs": [
        {
          "internalType": "address",
          "name": "owner",
          "type": "address"
        },
        {
          "internalType": "address",
          "name": "operator",
          "type": "address"
        }
      ],
      "name": "isApprovedForAll",
      "outputs": [
        {
          "internalType": "bool",
          "name": "",
          "type": "bool"
        }
      ],
      "stateMutability": "view",
      "type": "function"
    },
    {
      "inputs": [],
      "name": "name",
      "outputs": [
        {
          "internalType": "string",
          "name": "",
          "type": "string"
        }
      ],
      "stateMutability": "view",
      "type": "function"
    },
    {
      "inputs": [],
      "name": "owner",
      "outputs": [
        {
          "internalType": "address",
          "name": "",
          "type": "address"
        }
      ],
      "stateMutability": "view",
      "type": "function"
    },
    {
      "inputs": [
        {
          "internalType": "uint256",
          "name": "tokenId",
          "type": "uint256"
        }
      ],
      "name": "ownerOf",
      "outputs": [
        {
          "internalType": "address",
          "name": "",
          "type": "address"
        }
      ],
      "stateMutability": "view",
      "type": "function"
    },
    {
      "inputs": [],
      "name": "renounceOwnership",
      "outputs": [],
      "stateMutability": "nonpayable",
      "type": "function"
    },
    {
      "inputs": [
        {
          "internalType": "address",
          "name": "from",
          "type": "address"
        },
        {
          "internalType": "address",
          "name": "to",
          "type": "address"
        },
        {
          "internalType": "uint256",
          "name": "tokenId",
          "type": "uint256"
        }
      ],
      "name": "safeTransferFrom",
      "outputs": [],
      "stateMutability": "nonpayable",
      "type": "function"
    },
    {
      "inputs": [
        {
          "internalType": "address",
          "name": "from",
          "type": "address"
        },
        {
          "internalType": "address",
          "name": "to",
          "type": "address"
        },
        {
          "internalType": "uint256",
          "name": "tokenId",
          "type": "uint256"
        },
        {
          "internalType": "bytes",
          "name": "_data",
          "type": "bytes"
        }
      ],
      "name": "safeTransferFrom",
      "outputs": [],
      "stateMutability": "nonpayable",
      "type": "function"
    },
    {
      "inputs": [
        {
          "internalType": "address",
          "name": "operator",
          "type": "address"
        },
        {
          "internalType": "bool",
          "name": "approved",
          "type": "bool"
        }
      ],
      "name": "setApprovalForAll",
      "outputs": [],
      "stateMutability": "nonpayable",
      "type": "function"
    },
    {
      "inputs": [
        {
          "internalType": "bytes4",
          "name": "interfaceId",
          "type": "bytes4"
        }
      ],
      "name": "supportsInterface",
      "outputs": [
        {
          "internalType": "bool",
          "name": "",
          "type": "bool"
        }
      ],
      "stateMutability": "view",
      "type": "function"
    },
    {
      "inputs": [],
      "name": "symbol",
      "outputs": [
        {
          "internalType": "string",
          "name": "",
          "type": "string"
        }
      ],
      "stateMutability": "view",
      "type": "function"
    },
    {
      "inputs": [
        {
          "internalType": "uint256",
          "name": "index",
          "type": "uint256"
        }
      ],
      "name": "tokenByIndex",
      "outputs": [
        {
          "internalType": "uint256",
          "name": "",
          "type": "uint256"
        }
      ],
      "stateMutability": "view",
      "type": "function"
    },
    {
      "inputs": [
        {
          "internalType": "address",
          "name": "owner",
          "type": "address"
        },
        {
          "internalType": "uint256",
          "name": "index",
          "type": "uint256"
        }
      ],
      "name": "tokenOfOwnerByIndex",
      "outputs": [
        {
          "internalType": "uint256",
          "name": "",
          "type": "uint256"
        }
      ],
      "stateMutability": "view",
      "type": "function"
    },
    {
      "inputs": [
        {
          "internalType": "uint256",
          "name": "tokenId",
          "type": "uint256"
        }
      ],
      "name": "tokenURI",
      "outputs": [
        {
          "internalType": "string",
          "name": "",
          "type": "string"
        }
      ],
      "stateMutability": "view",
      "type": "function"
    },
    {
      "inputs": [],
      "name": "totalSupply",
      "outputs": [
        {
          "internalType": "uint256",
          "name": "",
          "type": "uint256"
        }
      ],
      "stateMutability": "view",
      "type": "function"
    },
    {
      "inputs": [
        {
          "internalType": "address",
          "name": "from",
          "type": "address"
        },
        {
          "internalType": "address",
          "name": "to",
          "type": "address"
        },
        {
          "internalType": "uint256",
          "name": "tokenId",
          "type": "uint256"
        }
      ],
      "name": "transferFrom",
      "outputs": [],
      "stateMutability": "nonpayable",
      "type": "function"
    },
    {
      "inputs": [
        {
          "internalType": "address",
          "name": "newOwner",
          "type": "address"
        }
      ],
      "name": "transferOwnership",
      "outputs": [],
      "stateMutability": "nonpayable",
      "type": "function"
    }
  ],
  "transactionHash": "0xcc2cd9391665b119e6451069a92f86cb3a5ef63d890cc3f9b59e4d4410527384",
  "args": [],
  "solcInputHash": "b4885c5abebeaf19bae0806029982751",
  "bytecode": "0x61052060405260016080818152600260a0819052600360c0819052600460e0819052600561010081905260066101208190526007610140819052600861016081905260096101808190526101a08a90526101c08890526101e08790526102008690526102208590526102408490526102608390526102808290526102a08190526102c08a90526102e08890526103008790526103208690526103408590526103608490526103808390526103a08290526103c08190526103e09990995261040096909652610420949094526104409290925261046052610480526104a0526104c0526104e091909152600a61050052620000fe90600c906025620004d2565b5060408051610b0081018252600180825260208201819052918101829052606081018290526080810182905260a0810182905260c0810182905260e08101829052610100810182905261012081018290526101408101829052610160810182905261018081018290526101a081018290526101c081018290526101e08101829052610200810182905261022081018290526102408101829052610260810182905261028081018290526102a081018290526102c081018290526102e08101829052610300810182905261032081018290526103408101829052610360810182905261038081018290526103a081018290526103c081018290526103e08101829052610400810182905261042081018290526104408101829052610460810182905261048081018290526104a081018290526104c081018290526104e08101829052610500810182905261052081018290526105408101829052610560810182905261058081018290526105a081018290526105c081018290526105e08101829052610600810182905261062081018290526106408101829052610660810182905261068081018290526106a081018290526106c081018290526106e08101829052610700810182905261072081018290526107408101829052610760810182905261078081018290526107a081018290526107c081018290526107e08101829052610800810182905261082081018290526108408101829052610860810182905261088081018290526108a081018290526108c081018290526108e08101829052610900810182905261092081018290526109408101829052610960810182905261098081018290526109a081018290526109c081018290526109e08101829052610a008101829052610a208101829052610a408101829052610a608101829052610a808101829052610aa08101829052610ac08101919091526000610ae0820152620003d090600d906058620004d2565b506040805180820190915260018152600260208201819052620003f691600e91620004d2565b503480156200040457600080fd5b50604051806040016040528060018152602001603760f91b815250604051806040016040528060018152602001602760f91b8152508160009080519060200190620004519291906200057f565b508051620004679060019060208401906200057f565b50506001600a55506200047a3362000480565b62000650565b600b80546001600160a01b038381166001600160a01b0319831681179093556040519116919082907f8be0079c531659141344cd1fd0a4f28419497f9722a3daafe3b4186f6b6457e090600090a35050565b82805482825590600052602060002090601f016020900481019282156200056d5791602002820160005b838211156200053c57835183826101000a81548160ff021916908360ff1602179055509260200192600101602081600001049283019260010302620004fc565b80156200056b5782816101000a81549060ff02191690556001016020816000010492830192600103026200053c565b505b506200057b929150620005fc565b5090565b8280546200058d9062000613565b90600052602060002090601f016020900481019282620005b157600085556200056d565b82601f10620005cc57805160ff19168380011785556200056d565b828001600101855582156200056d579182015b828111156200056d578251825591602001919060010190620005df565b5b808211156200057b5760008155600101620005fd565b600181811c908216806200062857607f821691505b602082108114156200064a57634e487b7160e01b600052602260045260246000fd5b50919050565b612a1a80620006606000396000f3fe608060405234801561001057600080fd5b50600436106101c45760003560e01c806370a08231116100f95780639ec29b8211610097578063c87b56dd11610071578063c87b56dd146103ad578063e985e9c5146103c0578063f2fde38b146103fc578063fa7f71b11461040f57600080fd5b80639ec29b8214610374578063a22cb46514610387578063b88d4fde1461039a57600080fd5b80638c921d06116100d35780638c921d06146103355780638da5cb5b146103485780639347e43f1461035957806395d89b411461036c57600080fd5b806370a0823114610307578063715018a61461031a5780638aa001fc1461032257600080fd5b80632f745c591161016657806342d9d8761161014057806342d9d876146102bb5780634f6ccce7146102ce5780636352211e146102e1578063667386f7146102f457600080fd5b80632f745c5914610282578063379607f51461029557806342842e0e146102a857600080fd5b8063095ea7b3116101a2578063095ea7b3146102315780630b2503a61461024657806318160ddd1461026757806323b872dd1461026f57600080fd5b806301ffc9a7146101c957806306fdde03146101f1578063081812fc14610206575b600080fd5b6101dc6101d73660046122be565b610422565b60405190151581526020015b60405180910390f35b6101f961044d565b6040516101e89190612585565b6102196102143660046122f6565b6104df565b6040516001600160a01b0390911681526020016101e8565b61024461023f366004612295565b610579565b005b6102596102543660046122f6565b61068f565b6040519081526020016101e8565b600854610259565b61024461027d36600461214b565b610727565b610259610290366004612295565b610758565b6102446102a33660046122f6565b6107ee565b6102446102b636600461214b565b6108c2565b6102596102c93660046122f6565b6108dd565b6102596102dc3660046122f6565b610959565b6102196102ef3660046122f6565b6109fa565b6102596103023660046122f6565b610a71565b6102596103153660046120f8565b610aed565b610244610b74565b6102596103303660046122f6565b610bda565b6102596103433660046122f6565b610c57565b600b546001600160a01b0316610219565b6102596103673660046122f6565b610cd4565b6101f9610d50565b6102596103823660046122f6565b610d5f565b61024461039536600461225b565b610ddc565b6102446103a8366004612186565b610ea1565b6101f96103bb3660046122f6565b610ed9565b6101dc6103ce366004612119565b6001600160a01b03918216600090815260056020908152604080832093909416825291909152205460ff1690565b61024461040a3660046120f8565b61119e565b61025961041d3660046122f6565b611269565b60006001600160e01b0319821663780e9d6360e01b14806104475750610447826112e5565b92915050565b60606000805461045c906126c9565b80601f0160208091040260200160405190810160405280929190818152602001828054610488906126c9565b80156104d55780601f106104aa576101008083540402835291602001916104d5565b820191906000526020600020905b8154815290600101906020018083116104b857829003601f168201915b5050505050905090565b6000818152600260205260408120546001600160a01b031661055d5760405162461bcd60e51b815260206004820152602c60248201527f4552433732313a20617070726f76656420717565727920666f72206e6f6e657860448201526b34b9ba32b73a103a37b5b2b760a11b60648201526084015b60405180910390fd5b506000908152600460205260409020546001600160a01b031690565b6000610584826109fa565b9050806001600160a01b0316836001600160a01b031614156105f25760405162461bcd60e51b815260206004820152602160248201527f4552433732313a20617070726f76616c20746f2063757272656e74206f776e656044820152603960f91b6064820152608401610554565b336001600160a01b038216148061060e575061060e81336103ce565b6106805760405162461bcd60e51b815260206004820152603860248201527f4552433732313a20617070726f76652063616c6c6572206973206e6f74206f7760448201527f6e6572206e6f7220617070726f76656420666f7220616c6c00000000000000006064820152608401610554565b61068a8383611335565b505050565b6000610447826040518060400160405280600581526020016408c928ca8960db1b815250600c80548060200260200160405190810160405280929190818152602001828054801561071d57602002820191906000526020600020906000905b825461010083900a900460ff168152602060019283018181049485019490930390920291018084116106ee5790505b50505050506113a3565b61073133826115b0565b61074d5760405162461bcd60e51b8152600401610554906125ea565b61068a8383836116a7565b600061076383610aed565b82106107c55760405162461bcd60e51b815260206004820152602b60248201527f455243373231456e756d657261626c653a206f776e657220696e646578206f7560448201526a74206f6620626f756e647360a81b6064820152608401610554565b506001600160a01b03919091166000908152600660209081526040808320938352929052205490565b6002600a5414156108415760405162461bcd60e51b815260206004820152601f60248201527f5265656e7472616e637947756172643a207265656e7472616e742063616c6c006044820152606401610554565b6002600a55801580159061085657506122b981105b6108955760405162461bcd60e51b815260206004820152601060248201526f151bdad95b881251081a5b9d985b1a5960821b6044820152606401610554565b61089f3382611852565b50336000908152600f60205260409020805460ff19166001908117909155600a55565b61068a83838360405180602001604052806000815250610ea1565b600061044782604051806040016040528060058152602001640a692b0a8960db1b815250600c80548060200260200160405190810160405280929190818152602001828054801561071d576000918252602091829020805460ff1684529082028301929091600191018084116106ee57905050505050506113a3565b600061096460085490565b82106109c75760405162461bcd60e51b815260206004820152602c60248201527f455243373231456e756d657261626c653a20676c6f62616c20696e646578206f60448201526b7574206f6620626f756e647360a01b6064820152608401610554565b600882815481106109e857634e487b7160e01b600052603260045260246000fd5b90600052602060002001549050919050565b6000818152600260205260408120546001600160a01b0316806104475760405162461bcd60e51b815260206004820152602960248201527f4552433732313a206f776e657220717565727920666f72206e6f6e657869737460448201526832b73a103a37b5b2b760b91b6064820152608401610554565b6000610447826040518060400160405280600581526020016411925494d560da1b815250600c80548060200260200160405190810160405280929190818152602001828054801561071d576000918252602091829020805460ff1684529082028301929091600191018084116106ee57905050505050506113a3565b60006001600160a01b038216610b585760405162461bcd60e51b815260206004820152602a60248201527f4552433732313a2062616c616e636520717565727920666f7220746865207a65604482015269726f206164647265737360b01b6064820152608401610554565b506001600160a01b031660009081526003602052604090205490565b600b546001600160a01b03163314610bce5760405162461bcd60e51b815260206004820181905260248201527f4f776e61626c653a2063616c6c6572206973206e6f7420746865206f776e65726044820152606401610554565b610bd86000611870565b565b6000610447826040518060400160405280600681526020016514d150d3d39160d21b815250600c80548060200260200160405190810160405280929190818152602001828054801561071d576000918252602091829020805460ff1684529082028301929091600191018084116106ee57905050505050506113a3565b6000610447826040518060400160405280600681526020016514d15591539560d21b815250600c80548060200260200160405190810160405280929190818152602001828054801561071d576000918252602091829020805460ff1684529082028301929091600191018084116106ee57905050505050506113a3565b60006104478260405180604001604052806005815260200164115251d21560da1b815250600c80548060200260200160405190810160405280929190818152602001828054801561071d576000918252602091829020805460ff1684529082028301929091600191018084116106ee57905050505050506113a3565b60606001805461045c906126c9565b6000610447826040518060400160405280600681526020016508c9eaaa4a8960d31b815250600c80548060200260200160405190810160405280929190818152602001828054801561071d576000918252602091829020805460ff1684529082028301929091600191018084116106ee57905050505050506113a3565b6001600160a01b038216331415610e355760405162461bcd60e51b815260206004820152601960248201527f4552433732313a20617070726f766520746f2063616c6c6572000000000000006044820152606401610554565b3360008181526005602090815260408083206001600160a01b03871680855290835292819020805460ff191686151590811790915590519081529192917f17307eab39ab6107e8899845ad3d59bd9653f200f220920489ca2b5937696c31910160405180910390a35050565b610eab33836115b0565b610ec75760405162461bcd60e51b8152600401610554906125ea565b610ed3848484846118c2565b50505050565b6060610ee36120b4565b60405180610120016040528060fd815260200161285760fd91398152610f10610f0b84610a71565b6118f5565b81600160200201819052506040518060600160405280602881526020016129bd602891396040820152610f45610f0b84610bda565b606080830191909152604080519182019052602880825261278c60208301396080820152610f75610f0b84611269565b60a082015260408051606081019091526028808252612806602083013960c0820152610fa3610f0b84610d5f565b60e08201526040805160608101909152602980825261282e6020830139610100820152610fd2610f0b8461068f565b610120820152604080516060810190915260298082526127dd6020830139610140820152611002610f0b846108dd565b610160820152604080516060810190915260298082526129546020830139610180820152611032610f0b84610c57565b6101a0820152604080516060810190915260298082526127b460208301396101c0820152611062610f0b84610cd4565b6101e0820152604080518082018252600d81526c1e17ba32bc3a1f1e17b9bb339f60991b602080830191909152610200840191909152825181840151838501516060860151608087015160a088015160c089015160e08a01516101008b0151995160009a6110d29a909101612385565b60408051808303601f19018152908290526101208401516101408501516101608601516101808701516101a08801516101c08901516101e08a01516102008b0151979950611125988a9890602001612385565b60405160208183030381529060405290506000611172611144866118f5565b61114d84611a0f565b60405160200161115e929190612447565b604051602081830303815290604052611a0f565b9050806040516020016111859190612503565b60408051601f1981840301815291905295945050505050565b600b546001600160a01b031633146111f85760405162461bcd60e51b815260206004820181905260248201527f4f776e61626c653a2063616c6c6572206973206e6f7420746865206f776e65726044820152606401610554565b6001600160a01b03811661125d5760405162461bcd60e51b815260206004820152602660248201527f4f776e61626c653a206e6577206f776e657220697320746865207a65726f206160448201526564647265737360d01b6064820152608401610554565b61126681611870565b50565b60006104478260405180604001604052806005815260200164151212549160da1b815250600c80548060200260200160405190810160405280929190818152602001828054801561071d576000918252602091829020805460ff1684529082028301929091600191018084116106ee57905050505050506113a3565b60006001600160e01b031982166380ac58cd60e01b148061131657506001600160e01b03198216635b5e139f60e01b145b8061044757506301ffc9a760e01b6001600160e01b0319831614610447565b600081815260046020526040902080546001600160a01b0319166001600160a01b038416908117909155819061136a826109fa565b6001600160a01b03167f8c5be1e5ebec7d5bd14f71427d1e84f3dd0314c0f7b2291e5b200ac8c7c3b92560405160405180910390a45050565b6000806113d8846113b3876118f5565b6040516020016113c4929190612356565b604051602081830303815290604052611b83565b90506000838451836113ea919061271f565b8151811061140857634e487b7160e01b600052603260045260246000fd5b602002602001015160ff1690506000601583611424919061271f565b9050600e81111561148657600e805461143d908561271f565b8154811061145b57634e487b7160e01b600052603260045260246000fd5b60009182526020918290209181049091015461148391601f166101000a900460ff168361263b565b91505b601381106115a657806013141561154f57600e80546114a5908561271f565b815481106114c357634e487b7160e01b600052603260045260246000fd5b90600052602060002090602091828204019190069054906101000a900460ff1660ff16600d8080549050856114f8919061271f565b8154811061151657634e487b7160e01b600052603260045260246000fd5b60009182526020918290209181049091015461153e91601f166101000a900460ff1684612667565b611548919061263b565b91506115a6565b600d805461155d908561271f565b8154811061157b57634e487b7160e01b600052603260045260246000fd5b6000918252602091829020918104909101546115a391601f166101000a900460ff1683612667565b91505b5095945050505050565b6000818152600260205260408120546001600160a01b03166116295760405162461bcd60e51b815260206004820152602c60248201527f4552433732313a206f70657261746f7220717565727920666f72206e6f6e657860448201526b34b9ba32b73a103a37b5b2b760a11b6064820152608401610554565b6000611634836109fa565b9050806001600160a01b0316846001600160a01b0316148061166f5750836001600160a01b0316611664846104df565b6001600160a01b0316145b8061169f57506001600160a01b0380821660009081526005602090815260408083209388168352929052205460ff165b949350505050565b826001600160a01b03166116ba826109fa565b6001600160a01b0316146117225760405162461bcd60e51b815260206004820152602960248201527f4552433732313a207472616e73666572206f6620746f6b656e2074686174206960448201526839903737ba1037bbb760b91b6064820152608401610554565b6001600160a01b0382166117845760405162461bcd60e51b8152602060048201526024808201527f4552433732313a207472616e7366657220746f20746865207a65726f206164646044820152637265737360e01b6064820152608401610554565b61178f838383611bb4565b61179a600082611335565b6001600160a01b03831660009081526003602052604081208054600192906117c3908490612686565b90915550506001600160a01b03821660009081526003602052604081208054600192906117f190849061263b565b909155505060008181526002602052604080822080546001600160a01b0319166001600160a01b0386811691821790925591518493918716917fddf252ad1be2c89b69c2b068fc378daa952ba7f163c4a11628f55a4df523b3ef91a4505050565b61186c828260405180602001604052806000815250611c6c565b5050565b600b80546001600160a01b038381166001600160a01b0319831681179093556040519116919082907f8be0079c531659141344cd1fd0a4f28419497f9722a3daafe3b4186f6b6457e090600090a35050565b6118cd8484846116a7565b6118d984848484611c9f565b610ed35760405162461bcd60e51b815260040161055490612598565b6060816119195750506040805180820190915260018152600360fc1b602082015290565b8160005b8115611943578061192d81612704565b915061193c9050600a83612653565b915061191d565b60008167ffffffffffffffff81111561196c57634e487b7160e01b600052604160045260246000fd5b6040519080825280601f01601f191660200182016040528015611996576020820181803683370190505b5090505b841561169f576119ab600183612686565b91506119b8600a8661271f565b6119c390603061263b565b60f81b8183815181106119e657634e487b7160e01b600052603260045260246000fd5b60200101906001600160f81b031916908160001a905350611a08600a86612653565b945061199a565b805160609080611a2f575050604080516020810190915260008152919050565b60006003611a3e83600261263b565b611a489190612653565b611a53906004612667565b90506000611a6282602061263b565b67ffffffffffffffff811115611a8857634e487b7160e01b600052604160045260246000fd5b6040519080825280601f01601f191660200182016040528015611ab2576020820181803683370190505b509050600060405180606001604052806040815260200161297d604091399050600181016020830160005b86811015611b3e576003818a01810151603f601282901c8116860151600c83901c8216870151600684901c831688015192909316870151600891821b60ff94851601821b92841692909201901b91160160e01b835260049092019101611add565b506003860660018114611b585760028114611b6957611b75565b613d3d60f01b600119830152611b75565b603d60f81b6000198301525b505050918152949350505050565b600081604051602001611b96919061233a565b60408051601f19818403018152919052805160209091012092915050565b6001600160a01b038316611c0f57611c0a81600880546000838152600960205260408120829055600182018355919091527ff3f7a9fe364faab93b216da50a3214154f22a0a2b415b23a84c8169e8b636ee30155565b611c32565b816001600160a01b0316836001600160a01b031614611c3257611c328382611dac565b6001600160a01b038216611c495761068a81611e49565b826001600160a01b0316826001600160a01b03161461068a5761068a8282611f22565b611c768383611f66565b611c836000848484611c9f565b61068a5760405162461bcd60e51b815260040161055490612598565b60006001600160a01b0384163b15611da157604051630a85bd0160e11b81526001600160a01b0385169063150b7a0290611ce3903390899088908890600401612548565b602060405180830381600087803b158015611cfd57600080fd5b505af1925050508015611d2d575060408051601f3d908101601f19168201909252611d2a918101906122da565b60015b611d87573d808015611d5b576040519150601f19603f3d011682016040523d82523d6000602084013e611d60565b606091505b508051611d7f5760405162461bcd60e51b815260040161055490612598565b805181602001fd5b6001600160e01b031916630a85bd0160e11b14905061169f565b506001949350505050565b60006001611db984610aed565b611dc39190612686565b600083815260076020526040902054909150808214611e16576001600160a01b03841660009081526006602090815260408083208584528252808320548484528184208190558352600790915290208190555b5060009182526007602090815260408084208490556001600160a01b039094168352600681528383209183525290812055565b600854600090611e5b90600190612686565b60008381526009602052604081205460088054939450909284908110611e9157634e487b7160e01b600052603260045260246000fd5b906000526020600020015490508060088381548110611ec057634e487b7160e01b600052603260045260246000fd5b6000918252602080832090910192909255828152600990915260408082208490558582528120556008805480611f0657634e487b7160e01b600052603160045260246000fd5b6001900381819060005260206000200160009055905550505050565b6000611f2d83610aed565b6001600160a01b039093166000908152600660209081526040808320868452825280832085905593825260079052919091209190915550565b6001600160a01b038216611fbc5760405162461bcd60e51b815260206004820181905260248201527f4552433732313a206d696e7420746f20746865207a65726f20616464726573736044820152606401610554565b6000818152600260205260409020546001600160a01b0316156120215760405162461bcd60e51b815260206004820152601c60248201527f4552433732313a20746f6b656e20616c7265616479206d696e746564000000006044820152606401610554565b61202d60008383611bb4565b6001600160a01b038216600090815260036020526040812080546001929061205690849061263b565b909155505060008181526002602052604080822080546001600160a01b0319166001600160a01b03861690811790915590518392907fddf252ad1be2c89b69c2b068fc378daa952ba7f163c4a11628f55a4df523b3ef908290a45050565b6040518061022001604052806011905b60608152602001906001900390816120c45790505090565b80356001600160a01b03811681146120f357600080fd5b919050565b600060208284031215612109578081fd5b612112826120dc565b9392505050565b6000806040838503121561212b578081fd5b612134836120dc565b9150612142602084016120dc565b90509250929050565b60008060006060848603121561215f578081fd5b612168846120dc565b9250612176602085016120dc565b9150604084013590509250925092565b6000806000806080858703121561219b578081fd5b6121a4856120dc565b93506121b2602086016120dc565b925060408501359150606085013567ffffffffffffffff808211156121d5578283fd5b818701915087601f8301126121e8578283fd5b8135818111156121fa576121fa61275f565b604051601f8201601f19908116603f011681019083821181831017156122225761222261275f565b816040528281528a602084870101111561223a578586fd5b82602086016020830137918201602001949094529598949750929550505050565b6000806040838503121561226d578182fd5b612276836120dc565b91506020830135801515811461228a578182fd5b809150509250929050565b600080604083850312156122a7578182fd5b6122b0836120dc565b946020939093013593505050565b6000602082840312156122cf578081fd5b813561211281612775565b6000602082840312156122eb578081fd5b815161211281612775565b600060208284031215612307578081fd5b5035919050565b6000815180845261232681602086016020860161269d565b601f01601f19169290920160200192915050565b6000825161234c81846020870161269d565b9190910192915050565b6000835161236881846020880161269d565b83519083019061237c81836020880161269d565b01949350505050565b60008a51612397818460208f0161269d565b8a51908301906123ab818360208f0161269d565b8a516123bd8183850160208f0161269d565b8a519290910101906123d3818360208d0161269d565b88516123e58183850160208d0161269d565b88519290910101906123fb818360208b0161269d565b865161240d8183850160208b0161269d565b865192909101019061242381836020890161269d565b8451612435818385016020890161269d565b9101019b9a5050505050505050505050565b6c7b226e616d65223a20224e202360981b8152825160009061247081600d85016020880161269d565b7f222c20226465736372697074696f6e223a20224e206973206a757374206e756d600d918401918201527f626572732e222c2022696d616765223a2022646174613a696d6167652f737667602d8201526b0ade1b5b0ed8985cd94d8d0b60a21b604d82015283516124e881605984016020880161269d565b61227d60f01b60599290910191820152605b01949350505050565b7f646174613a6170706c69636174696f6e2f6a736f6e3b6261736536342c00000081526000825161253b81601d85016020870161269d565b91909101601d0192915050565b6001600160a01b038581168252841660208201526040810183905260806060820181905260009061257b9083018461230e565b9695505050505050565b602081526000612112602083018461230e565b60208082526032908201527f4552433732313a207472616e7366657220746f206e6f6e20455243373231526560408201527131b2b4bb32b91034b6b83632b6b2b73a32b960711b606082015260800190565b60208082526031908201527f4552433732313a207472616e736665722063616c6c6572206973206e6f74206f6040820152701ddb995c881b9bdc88185c1c1c9bdd9959607a1b606082015260800190565b6000821982111561264e5761264e612733565b500190565b60008261266257612662612749565b500490565b600081600019048311821515161561268157612681612733565b500290565b60008282101561269857612698612733565b500390565b60005b838110156126b85781810151838201526020016126a0565b83811115610ed35750506000910152565b600181811c908216806126dd57607f821691505b602082108114156126fe57634e487b7160e01b600052602260045260246000fd5b50919050565b600060001982141561271857612718612733565b5060010190565b60008261272e5761272e612749565b500690565b634e487b7160e01b600052601160045260246000fd5b634e487b7160e01b600052601260045260246000fd5b634e487b7160e01b600052604160045260246000fd5b6001600160e01b03198116811461126657600080fdfe3c2f746578743e3c7465787420783d2231302220793d2236302220636c6173733d2262617365223e3c2f746578743e3c7465787420783d2231302220793d223136302220636c6173733d2262617365223e3c2f746578743e3c7465787420783d2231302220793d223132302220636c6173733d2262617365223e3c2f746578743e3c7465787420783d2231302220793d2238302220636c6173733d2262617365223e3c2f746578743e3c7465787420783d2231302220793d223130302220636c6173733d2262617365223e3c73766720786d6c6e733d22687474703a2f2f7777772e77332e6f72672f323030302f73766722207072657365727665417370656374526174696f3d22784d696e594d696e206d656574222076696577426f783d223020302033353020333530223e3c7374796c653e2e62617365207b2066696c6c3a2077686974653b20666f6e742d66616d696c793a2073657269663b20666f6e742d73697a653a20313470783b207d3c2f7374796c653e3c726563742077696474683d223130302522206865696768743d2231303025222066696c6c3d22626c61636b22202f3e3c7465787420783d2231302220793d2232302220636c6173733d2262617365223e3c2f746578743e3c7465787420783d2231302220793d223134302220636c6173733d2262617365223e4142434445464748494a4b4c4d4e4f505152535455565758595a6162636465666768696a6b6c6d6e6f707172737475767778797a303132333435363738392b2f3c2f746578743e3c7465787420783d2231302220793d2234302220636c6173733d2262617365223ea2646970667358221220e5286f6d25675f1317d69ebce411326413923c157589abd15b7874dcb9155fa164736f6c63430008040033",
  "devdoc": {
    "kind": "dev",
    "methods": {
      "approve(address,uint256)": {
        "details": "See {IERC721-approve}."
      },
      "balanceOf(address)": {
        "details": "See {IERC721-balanceOf}."
      },
      "getApproved(uint256)": {
        "details": "See {IERC721-getApproved}."
      },
      "isApprovedForAll(address,address)": {
        "details": "See {IERC721-isApprovedForAll}."
      },
      "name()": {
        "details": "See {IERC721Metadata-name}."
      },
      "owner()": {
        "details": "Returns the address of the current owner."
      },
      "ownerOf(uint256)": {
        "details": "See {IERC721-ownerOf}."
      },
      "renounceOwnership()": {
        "details": "Leaves the contract without owner. It will not be possible to call `onlyOwner` functions anymore. Can only be called by the current owner. NOTE: Renouncing ownership will leave the contract without an owner, thereby removing any functionality that is only available to the owner."
      },
      "safeTransferFrom(address,address,uint256)": {
        "details": "See {IERC721-safeTransferFrom}."
      },
      "safeTransferFrom(address,address,uint256,bytes)": {
        "details": "See {IERC721-safeTransferFrom}."
      },
      "setApprovalForAll(address,bool)": {
        "details": "See {IERC721-setApprovalForAll}."
      },
      "supportsInterface(bytes4)": {
        "details": "See {IERC165-supportsInterface}."
      },
      "symbol()": {
        "details": "See {IERC721Metadata-symbol}."
      },
      "tokenByIndex(uint256)": {
        "details": "See {IERC721Enumerable-tokenByIndex}."
      },
      "tokenOfOwnerByIndex(address,uint256)": {
        "details": "See {IERC721Enumerable-tokenOfOwnerByIndex}."
      },
      "tokenURI(uint256)": {
        "details": "See {IERC721Metadata-tokenURI}."
      },
      "totalSupply()": {
        "details": "See {IERC721Enumerable-totalSupply}."
      },
      "transferFrom(address,address,uint256)": {
        "details": "See {IERC721-transferFrom}."
      },
      "transferOwnership(address)": {
        "details": "Transfers ownership of the contract to a new account (`newOwner`). Can only be called by the current owner."
      }
    },
    "version": 1
  },
  "userdoc": {
    "kind": "user",
    "methods": {},
    "version": 1
  },
  "storageLayout": {
    "storage": [
      {
        "astId": 169,
        "contract": "contracts/N.sol:N",
        "label": "_name",
        "offset": 0,
        "slot": "0",
        "type": "t_string_storage"
      },
      {
        "astId": 171,
        "contract": "contracts/N.sol:N",
        "label": "_symbol",
        "offset": 0,
        "slot": "1",
        "type": "t_string_storage"
      },
      {
        "astId": 175,
        "contract": "contracts/N.sol:N",
        "label": "_owners",
        "offset": 0,
        "slot": "2",
        "type": "t_mapping(t_uint256,t_address)"
      },
      {
        "astId": 179,
        "contract": "contracts/N.sol:N",
        "label": "_balances",
        "offset": 0,
        "slot": "3",
        "type": "t_mapping(t_address,t_uint256)"
      },
      {
        "astId": 183,
        "contract": "contracts/N.sol:N",
        "label": "_tokenApprovals",
        "offset": 0,
        "slot": "4",
        "type": "t_mapping(t_uint256,t_address)"
      },
      {
        "astId": 189,
        "contract": "contracts/N.sol:N",
        "label": "_operatorApprovals",
        "offset": 0,
        "slot": "5",
        "type": "t_mapping(t_address,t_mapping(t_address,t_bool))"
      },
      {
        "astId": 1108,
        "contract": "contracts/N.sol:N",
        "label": "_ownedTokens",
        "offset": 0,
        "slot": "6",
        "type": "t_mapping(t_address,t_mapping(t_uint256,t_uint256))"
      },
      {
        "astId": 1112,
        "contract": "contracts/N.sol:N",
        "label": "_ownedTokensIndex",
        "offset": 0,
        "slot": "7",
        "type": "t_mapping(t_uint256,t_uint256)"
      },
      {
        "astId": 1115,
        "contract": "contracts/N.sol:N",
        "label": "_allTokens",
        "offset": 0,
        "slot": "8",
        "type": "t_array(t_uint256)dyn_storage"
      },
      {
        "astId": 1119,
        "contract": "contracts/N.sol:N",
        "label": "_allTokensIndex",
        "offset": 0,
        "slot": "9",
        "type": "t_mapping(t_uint256,t_uint256)"
      },
      {
        "astId": 114,
        "contract": "contracts/N.sol:N",
        "label": "_status",
        "offset": 0,
        "slot": "10",
        "type": "t_uint256"
      },
      {
        "astId": 7,
        "contract": "contracts/N.sol:N",
        "label": "_owner",
        "offset": 0,
        "slot": "11",
        "type": "t_address"
      },
      {
        "astId": 3036,
        "contract": "contracts/N.sol:N",
        "label": "units",
        "offset": 0,
        "slot": "12",
        "type": "t_array(t_uint8)dyn_storage"
      },
      {
        "astId": 3128,
        "contract": "contracts/N.sol:N",
        "label": "multipliers",
        "offset": 0,
        "slot": "13",
        "type": "t_array(t_uint8)dyn_storage"
      },
      {
        "astId": 3134,
        "contract": "contracts/N.sol:N",
        "label": "suffixes",
        "offset": 0,
        "slot": "14",
        "type": "t_array(t_uint8)dyn_storage"
      },
      {
        "astId": 3138,
        "contract": "contracts/N.sol:N",
        "label": "isClaimed",
        "offset": 0,
        "slot": "15",
        "type": "t_mapping(t_address,t_bool)"
      }
    ],
    "types": {
      "t_address": {
        "encoding": "inplace",
        "label": "address",
        "numberOfBytes": "20"
      },
      "t_array(t_uint256)dyn_storage": {
        "base": "t_uint256",
        "encoding": "dynamic_array",
        "label": "uint256[]",
        "numberOfBytes": "32"
      },
      "t_array(t_uint8)dyn_storage": {
        "base": "t_uint8",
        "encoding": "dynamic_array",
        "label": "uint8[]",
        "numberOfBytes": "32"
      },
      "t_bool": {
        "encoding": "inplace",
        "label": "bool",
        "numberOfBytes": "1"
      },
      "t_mapping(t_address,t_bool)": {
        "encoding": "mapping",
        "key": "t_address",
        "label": "mapping(address => bool)",
        "numberOfBytes": "32",
        "value": "t_bool"
      },
      "t_mapping(t_address,t_mapping(t_address,t_bool))": {
        "encoding": "mapping",
        "key": "t_address",
        "label": "mapping(address => mapping(address => bool))",
        "numberOfBytes": "32",
        "value": "t_mapping(t_address,t_bool)"
      },
      "t_mapping(t_address,t_mapping(t_uint256,t_uint256))": {
        "encoding": "mapping",
        "key": "t_address",
        "label": "mapping(address => mapping(uint256 => uint256))",
        "numberOfBytes": "32",
        "value": "t_mapping(t_uint256,t_uint256)"
      },
      "t_mapping(t_address,t_uint256)": {
        "encoding": "mapping",
        "key": "t_address",
        "label": "mapping(address => uint256)",
        "numberOfBytes": "32",
        "value": "t_uint256"
      },
      "t_mapping(t_uint256,t_address)": {
        "encoding": "mapping",
        "key": "t_uint256",
        "label": "mapping(uint256 => address)",
        "numberOfBytes": "32",
        "value": "t_address"
      },
      "t_mapping(t_uint256,t_uint256)": {
        "encoding": "mapping",
        "key": "t_uint256",
        "label": "mapping(uint256 => uint256)",
        "numberOfBytes": "32",
        "value": "t_uint256"
      },
      "t_string_storage": {
        "encoding": "bytes",
        "label": "string",
        "numberOfBytes": "32"
      },
      "t_uint256": {
        "encoding": "inplace",
        "label": "uint256",
        "numberOfBytes": "32"
      },
      "t_uint8": {
        "encoding": "inplace",
        "label": "uint8",
        "numberOfBytes": "1"
      }
    }
  }
}