{
	"data": {
		"bytecode": {
			"linkReferences": {},
			"object": "608060405234801561001057600080fd5b5060a78061001f6000396000f300608060405260043610603f576000357c0100000000000000000000000000000000000000000000000000000000900463ffffffff16806383b5ff8b14604d575b348015604a57600080fd5b50005b348015605857600080fd5b50605f6075565b6040518082815260200191505060405180910390f35b600054815600a165627a7a7230582053ff604f556f28b92a27c5933a48b84b52227dc8b96e6485dac29ca474c2388b0029",
			"opcodes": "PUSH1 0x80 PUSH1 0x40 MSTORE CALLVALUE DUP1 ISZERO PUSH2 0x10 JUMPI PUSH1 0x0 DUP1 REVERT JUMPDEST POP PUSH1 0xA7 DUP1 PUSH2 0x1F PUSH1 0x0 CODECOPY PUSH1 0x0 RETURN STOP PUSH1 0x80 PUSH1 0x40 MSTORE PUSH1 0x4 CALLDATASIZE LT PUSH1 0x3F JUMPI PUSH1 0x0 CALLDATALOAD PUSH29 0x100000000000000000000000000000000000000000000000000000000 SWAP1 DIV PUSH4 0xFFFFFFFF AND DUP1 PUSH4 0x83B5FF8B EQ PUSH1 0x4D JUMPI JUMPDEST CALLVALUE DUP1 ISZERO PUSH1 0x4A JUMPI PUSH1 0x0 DUP1 REVERT JUMPDEST POP STOP JUMPDEST CALLVALUE DUP1 ISZERO PUSH1 0x58 JUMPI PUSH1 0x0 DUP1 REVERT JUMPDEST POP PUSH1 0x5F PUSH1 0x75 JUMP JUMPDEST PUSH1 0x40 MLOAD DUP1 DUP3 DUP2 MSTORE PUSH1 0x20 ADD SWAP2 POP POP PUSH1 0x40 MLOAD DUP1 SWAP2 SUB SWAP1 RETURN JUMPDEST PUSH1 0x0 SLOAD DUP2 JUMP STOP LOG1 PUSH6 0x627A7A723058 KECCAK256 MSTORE8 SELFDESTRUCT PUSH1 0x4F SSTORE PUSH16 0x28B92A27C5933A48B84B52227DC8B96E PUSH5 0x85DAC29CA4 PUSH21 0xC2388B002900000000000000000000000000000000 "
		},
		"gasEstimates": {
			"creation": {
				"codeDepositCost": "33400",
				"executionCost": "87",
				"totalCost": "33487"
			},
			"external": {
				"": "112",
				"ownerCut()": "394"
			},
			"internal": {
				"_addAuction(address,uint256,struct ClockAuctionBase.Auction memory)": "infinite",
				"_bid(address,uint256,uint256)": "infinite",
				"_cancelAuction(address,uint256,address)": "infinite",
				"_computeCurrentPrice(uint256,uint256,uint256,uint256)": "infinite",
				"_computeCut(uint256)": "infinite",
				"_currentPrice(struct ClockAuctionBase.Auction storage pointer)": "infinite",
				"_escrow(address,address,uint256)": "infinite",
				"_getNft(address)": "infinite",
				"_isOnAuction(struct ClockAuctionBase.Auction storage pointer)": "infinite",
				"_owns(address,address,uint256)": "infinite",
				"_removeAuction(address,uint256)": "infinite",
				"_transfer(address,address,uint256)": "infinite"
			}
		},
		"methodIdentifiers": {
			"ownerCut()": "83b5ff8b"
		}
	},
	"abi": [
		{
			"constant": true,
			"inputs": [],
			"name": "ownerCut",
			"outputs": [
				{
					"name": "",
					"type": "uint256"
				}
			],
			"payable": false,
			"stateMutability": "view",
			"type": "function"
		},
		{
			"payable": false,
			"stateMutability": "nonpayable",
			"type": "fallback"
		},
		{
			"anonymous": false,
			"inputs": [
				{
					"indexed": false,
					"name": "nftAddress",
					"type": "address"
				},
				{
					"indexed": false,
					"name": "tokenId",
					"type": "uint256"
				},
				{
					"indexed": false,
					"name": "startingPrice",
					"type": "uint256"
				},
				{
					"indexed": false,
					"name": "endingPrice",
					"type": "uint256"
				},
				{
					"indexed": false,
					"name": "duration",
					"type": "uint256"
				}
			],
			"name": "AuctionCreated",
			"type": "event"
		},
		{
			"anonymous": false,
			"inputs": [
				{
					"indexed": false,
					"name": "nftAddress",
					"type": "address"
				},
				{
					"indexed": false,
					"name": "tokenId",
					"type": "uint256"
				},
				{
					"indexed": false,
					"name": "totalPrice",
					"type": "uint256"
				},
				{
					"indexed": false,
					"name": "winner",
					"type": "address"
				}
			],
			"name": "AuctionSuccessful",
			"type": "event"
		},
		{
			"anonymous": false,
			"inputs": [
				{
					"indexed": false,
					"name": "nftAddress",
					"type": "address"
				},
				{
					"indexed": false,
					"name": "tokenId",
					"type": "uint256"
				}
			],
			"name": "AuctionCancelled",
			"type": "event"
		}
	]
}