{
  "_format": "hh-sol-artifact-1",
  "contractName": "NBToken",
  "sourceName": "contracts/NBToken.sol",
  "abi": [
    {
      "inputs": [],
      "stateMutability": "nonpayable",
      "type": "constructor"
    },
    {
      "anonymous": false,
      "inputs": [
        {
          "indexed": true,
          "internalType": "address",
          "name": "owner",
          "type": "address"
        },
        {
          "indexed": true,
          "internalType": "address",
          "name": "approved",
          "type": "address"
        },
        {
          "indexed": true,
          "internalType": "uint256",
          "name": "tokenId",
          "type": "uint256"
        }
      ],
      "name": "Approval",
      "type": "event"
    },
    {
      "anonymous": false,
      "inputs": [
        {
          "indexed": true,
          "internalType": "address",
          "name": "owner",
          "type": "address"
        },
        {
          "indexed": true,
          "internalType": "address",
          "name": "operator",
          "type": "address"
        },
        {
          "indexed": false,
          "internalType": "bool",
          "name": "approved",
          "type": "bool"
        }
      ],
      "name": "ApprovalForAll",
      "type": "event"
    },
    {
      "anonymous": false,
      "inputs": [
        {
          "indexed": true,
          "internalType": "address",
          "name": "from",
          "type": "address"
        },
        {
          "indexed": true,
          "internalType": "address",
          "name": "to",
          "type": "address"
        },
        {
          "indexed": true,
          "internalType": "uint256",
          "name": "tokenId",
          "type": "uint256"
        }
      ],
      "name": "Transfer",
      "type": "event"
    },
    {
      "inputs": [
        {
          "internalType": "address",
          "name": "to",
          "type": "address"
        },
        {
          "internalType": "uint256",
          "name": "tokenId",
          "type": "uint256"
        }
      ],
      "name": "approve",
      "outputs": [],
      "stateMutability": "nonpayable",
      "type": "function"
    },
    {
      "inputs": [
        {
          "internalType": "address",
          "name": "owner",
          "type": "address"
        }
      ],
      "name": "balanceOf",
      "outputs": [
        {
          "internalType": "uint256",
          "name": "",
          "type": "uint256"
        }
      ],
      "stateMutability": "view",
      "type": "function"
    },
    {
      "inputs": [
        {
          "internalType": "uint256",
          "name": "tokenId",
          "type": "uint256"
        }
      ],
      "name": "getApproved",
      "outputs": [
        {
          "internalType": "address",
          "name": "",
          "type": "address"
        }
      ],
      "stateMutability": "view",
      "type": "function"
    },
    {
      "inputs": [
        {
          "internalType": "address",
          "name": "owner",
          "type": "address"
        },
        {
          "internalType": "address",
          "name": "operator",
          "type": "address"
        }
      ],
      "name": "isApprovedForAll",
      "outputs": [
        {
          "internalType": "bool",
          "name": "",
          "type": "bool"
        }
      ],
      "stateMutability": "view",
      "type": "function"
    },
    {
      "inputs": [
        {
          "internalType": "address",
          "name": "receiver",
          "type": "address"
        }
      ],
      "name": "mintNft",
      "outputs": [
        {
          "internalType": "uint256",
          "name": "",
          "type": "uint256"
        }
      ],
      "stateMutability": "nonpayable",
      "type": "function"
    },
    {
      "inputs": [],
      "name": "name",
      "outputs": [
        {
          "internalType": "string",
          "name": "",
          "type": "string"
        }
      ],
      "stateMutability": "view",
      "type": "function"
    },
    {
      "inputs": [
        {
          "internalType": "uint256",
          "name": "tokenId",
          "type": "uint256"
        }
      ],
      "name": "ownerOf",
      "outputs": [
        {
          "internalType": "address",
          "name": "",
          "type": "address"
        }
      ],
      "stateMutability": "view",
      "type": "function"
    },
    {
      "inputs": [
        {
          "internalType": "address",
          "name": "from",
          "type": "address"
        },
        {
          "internalType": "address",
          "name": "to",
          "type": "address"
        },
        {
          "internalType": "uint256",
          "name": "tokenId",
          "type": "uint256"
        }
      ],
      "name": "safeTransferFrom",
      "outputs": [],
      "stateMutability": "nonpayable",
      "type": "function"
    },
    {
      "inputs": [
        {
          "internalType": "address",
          "name": "from",
          "type": "address"
        },
        {
          "internalType": "address",
          "name": "to",
          "type": "address"
        },
        {
          "internalType": "uint256",
          "name": "tokenId",
          "type": "uint256"
        },
        {
          "internalType": "bytes",
          "name": "_data",
          "type": "bytes"
        }
      ],
      "name": "safeTransferFrom",
      "outputs": [],
      "stateMutability": "nonpayable",
      "type": "function"
    },
    {
      "inputs": [
        {
          "internalType": "address",
          "name": "operator",
          "type": "address"
        },
        {
          "internalType": "bool",
          "name": "approved",
          "type": "bool"
        }
      ],
      "name": "setApprovalForAll",
      "outputs": [],
      "stateMutability": "nonpayable",
      "type": "function"
    },
    {
      "inputs": [
        {
          "internalType": "bytes4",
          "name": "interfaceId",
          "type": "bytes4"
        }
      ],
      "name": "supportsInterface",
      "outputs": [
        {
          "internalType": "bool",
          "name": "",
          "type": "bool"
        }
      ],
      "stateMutability": "view",
      "type": "function"
    },
    {
      "inputs": [],
      "name": "symbol",
      "outputs": [
        {
          "internalType": "string",
          "name": "",
          "type": "string"
        }
      ],
      "stateMutability": "view",
      "type": "function"
    },
    {
      "inputs": [
        {
          "internalType": "uint256",
          "name": "index",
          "type": "uint256"
        }
      ],
      "name": "tokenByIndex",
      "outputs": [
        {
          "internalType": "uint256",
          "name": "",
          "type": "uint256"
        }
      ],
      "stateMutability": "view",
      "type": "function"
    },
    {
      "inputs": [
        {
          "internalType": "address",
          "name": "owner",
          "type": "address"
        },
        {
          "internalType": "uint256",
          "name": "index",
          "type": "uint256"
        }
      ],
      "name": "tokenOfOwnerByIndex",
      "outputs": [
        {
          "internalType": "uint256",
          "name": "",
          "type": "uint256"
        }
      ],
      "stateMutability": "view",
      "type": "function"
    },
    {
      "inputs": [
        {
          "internalType": "uint256",
          "name": "tokenId",
          "type": "uint256"
        }
      ],
      "name": "tokenURI",
      "outputs": [
        {
          "internalType": "string",
          "name": "",
          "type": "string"
        }
      ],
      "stateMutability": "view",
      "type": "function"
    },
    {
      "inputs": [],
      "name": "totalSupply",
      "outputs": [
        {
          "internalType": "uint256",
          "name": "",
          "type": "uint256"
        }
      ],
      "stateMutability": "view",
      "type": "function"
    },
    {
      "inputs": [
        {
          "internalType": "address",
          "name": "from",
          "type": "address"
        },
        {
          "internalType": "address",
          "name": "to",
          "type": "address"
        },
        {
          "internalType": "uint256",
          "name": "tokenId",
          "type": "uint256"
        }
      ],
      "name": "transferFrom",
      "outputs": [],
      "stateMutability": "nonpayable",
      "type": "function"
    }
  ],
  "bytecode": "0x60806040523480156200001157600080fd5b5060408051808201825260088152672721102a37b5b2b760c11b602080830191825283518085019094526002845261272160f11b9084015281519192916200005c916000916200007b565b508051620000729060019060208401906200007b565b5050506200015e565b828054620000899062000121565b90600052602060002090601f016020900481019282620000ad5760008555620000f8565b82601f10620000c857805160ff1916838001178555620000f8565b82800160010185558215620000f8579182015b82811115620000f8578251825591602001919060010190620000db565b50620001069291506200010a565b5090565b5b808211156200010657600081556001016200010b565b600181811c908216806200013657607f821691505b602082108114156200015857634e487b7160e01b600052602260045260246000fd5b50919050565b61182c806200016e6000396000f3fe608060405234801561001057600080fd5b506004361061010b5760003560e01c80634f6ccce7116100a2578063a22cb46511610071578063a22cb46514610219578063b88d4fde1461022c578063c87b56dd1461023f578063e985e9c514610252578063e9c2e14b1461028e57600080fd5b80634f6ccce7146101d85780636352211e146101eb57806370a08231146101fe57806395d89b411461021157600080fd5b806318160ddd116100de57806318160ddd1461018d57806323b872dd1461019f5780632f745c59146101b257806342842e0e146101c557600080fd5b806301ffc9a71461011057806306fdde0314610138578063081812fc1461014d578063095ea7b314610178575b600080fd5b61012361011e366004611524565b6102a1565b60405190151581526020015b60405180910390f35b6101406102cc565b60405161012f919061160c565b61016061015b36600461155c565b61035e565b6040516001600160a01b03909116815260200161012f565b61018b6101863660046114fb565b6103f8565b005b6008545b60405190815260200161012f565b61018b6101ad3660046113b1565b61050e565b6101916101c03660046114fb565b61053f565b61018b6101d33660046113b1565b6105d5565b6101916101e636600461155c565b6105f0565b6101606101f936600461155c565b610691565b61019161020c366004611365565b610708565b61014061078f565b61018b6102273660046114c1565b61079e565b61018b61023a3660046113ec565b610863565b61014061024d36600461155c565b61089b565b61012361026036600461137f565b6001600160a01b03918216600090815260056020908152604080832093909416825291909152205460ff1690565b61019161029c366004611365565b6109a8565b60006001600160e01b0319821663780e9d6360e01b14806102c657506102c6826109cf565b92915050565b6060600080546102db90611731565b80601f016020809104026020016040519081016040528092919081815260200182805461030790611731565b80156103545780601f1061032957610100808354040283529160200191610354565b820191906000526020600020905b81548152906001019060200180831161033757829003601f168201915b5050505050905090565b6000818152600260205260408120546001600160a01b03166103dc5760405162461bcd60e51b815260206004820152602c60248201527f4552433732313a20617070726f76656420717565727920666f72206e6f6e657860448201526b34b9ba32b73a103a37b5b2b760a11b60648201526084015b60405180910390fd5b506000908152600460205260409020546001600160a01b031690565b600061040382610691565b9050806001600160a01b0316836001600160a01b031614156104715760405162461bcd60e51b815260206004820152602160248201527f4552433732313a20617070726f76616c20746f2063757272656e74206f776e656044820152603960f91b60648201526084016103d3565b336001600160a01b038216148061048d575061048d8133610260565b6104ff5760405162461bcd60e51b815260206004820152603860248201527f4552433732313a20617070726f76652063616c6c6572206973206e6f74206f7760448201527f6e6572206e6f7220617070726f76656420666f7220616c6c000000000000000060648201526084016103d3565b6105098383610a1f565b505050565b6105183382610a8d565b6105345760405162461bcd60e51b81526004016103d390611671565b610509838383610b84565b600061054a83610708565b82106105ac5760405162461bcd60e51b815260206004820152602b60248201527f455243373231456e756d657261626c653a206f776e657220696e646578206f7560448201526a74206f6620626f756e647360a81b60648201526084016103d3565b506001600160a01b03919091166000908152600660209081526040808320938352929052205490565b61050983838360405180602001604052806000815250610863565b60006105fb60085490565b821061065e5760405162461bcd60e51b815260206004820152602c60248201527f455243373231456e756d657261626c653a20676c6f62616c20696e646578206f60448201526b7574206f6620626f756e647360a01b60648201526084016103d3565b6008828154811061067f57634e487b7160e01b600052603260045260246000fd5b90600052602060002001549050919050565b6000818152600260205260408120546001600160a01b0316806102c65760405162461bcd60e51b815260206004820152602960248201527f4552433732313a206f776e657220717565727920666f72206e6f6e657869737460448201526832b73a103a37b5b2b760b91b60648201526084016103d3565b60006001600160a01b0382166107735760405162461bcd60e51b815260206004820152602a60248201527f4552433732313a2062616c616e636520717565727920666f7220746865207a65604482015269726f206164647265737360b01b60648201526084016103d3565b506001600160a01b031660009081526003602052604090205490565b6060600180546102db90611731565b6001600160a01b0382163314156107f75760405162461bcd60e51b815260206004820152601960248201527f4552433732313a20617070726f766520746f2063616c6c65720000000000000060448201526064016103d3565b3360008181526005602090815260408083206001600160a01b03871680855290835292819020805460ff191686151590811790915590519081529192917f17307eab39ab6107e8899845ad3d59bd9653f200f220920489ca2b5937696c31910160405180910390a35050565b61086d3383610a8d565b6108895760405162461bcd60e51b81526004016103d390611671565b61089584848484610d2f565b50505050565b6000818152600260205260409020546060906001600160a01b031661091a5760405162461bcd60e51b815260206004820152602f60248201527f4552433732314d657461646174613a2055524920717565727920666f72206e6f60448201526e3732bc34b9ba32b73a103a37b5b2b760891b60648201526084016103d3565b600061095660408051808201909152601b81527f687474703a2f2f7777772e77616e676e696e67626f2e636f6d2f230000000000602082015290565b9050600081511161097657604051806020016040528060008152506109a1565b8061098084610d62565b6040516020016109919291906115a0565b6040516020818303038152906040525b9392505050565b60006109b8600a80546001019055565b60006109c3600a5490565b90506102c68382610e7c565b60006001600160e01b031982166380ac58cd60e01b1480610a0057506001600160e01b03198216635b5e139f60e01b145b806102c657506301ffc9a760e01b6001600160e01b03198316146102c6565b600081815260046020526040902080546001600160a01b0319166001600160a01b0384169081179091558190610a5482610691565b6001600160a01b03167f8c5be1e5ebec7d5bd14f71427d1e84f3dd0314c0f7b2291e5b200ac8c7c3b92560405160405180910390a45050565b6000818152600260205260408120546001600160a01b0316610b065760405162461bcd60e51b815260206004820152602c60248201527f4552433732313a206f70657261746f7220717565727920666f72206e6f6e657860448201526b34b9ba32b73a103a37b5b2b760a11b60648201526084016103d3565b6000610b1183610691565b9050806001600160a01b0316846001600160a01b03161480610b4c5750836001600160a01b0316610b418461035e565b6001600160a01b0316145b80610b7c57506001600160a01b0380821660009081526005602090815260408083209388168352929052205460ff165b949350505050565b826001600160a01b0316610b9782610691565b6001600160a01b031614610bff5760405162461bcd60e51b815260206004820152602960248201527f4552433732313a207472616e73666572206f6620746f6b656e2074686174206960448201526839903737ba1037bbb760b91b60648201526084016103d3565b6001600160a01b038216610c615760405162461bcd60e51b8152602060048201526024808201527f4552433732313a207472616e7366657220746f20746865207a65726f206164646044820152637265737360e01b60648201526084016103d3565b610c6c838383610fca565b610c77600082610a1f565b6001600160a01b0383166000908152600360205260408120805460019290610ca09084906116ee565b90915550506001600160a01b0382166000908152600360205260408120805460019290610cce9084906116c2565b909155505060008181526002602052604080822080546001600160a01b0319166001600160a01b0386811691821790925591518493918716917fddf252ad1be2c89b69c2b068fc378daa952ba7f163c4a11628f55a4df523b3ef91a4505050565b610d3a848484610b84565b610d4684848484611082565b6108955760405162461bcd60e51b81526004016103d39061161f565b606081610d865750506040805180820190915260018152600360fc1b602082015290565b8160005b8115610db05780610d9a8161176c565b9150610da99050600a836116da565b9150610d8a565b60008167ffffffffffffffff811115610dd957634e487b7160e01b600052604160045260246000fd5b6040519080825280601f01601f191660200182016040528015610e03576020820181803683370190505b5090505b8415610b7c57610e186001836116ee565b9150610e25600a86611787565b610e309060306116c2565b60f81b818381518110610e5357634e487b7160e01b600052603260045260246000fd5b60200101906001600160f81b031916908160001a905350610e75600a866116da565b9450610e07565b6001600160a01b038216610ed25760405162461bcd60e51b815260206004820181905260248201527f4552433732313a206d696e7420746f20746865207a65726f206164647265737360448201526064016103d3565b6000818152600260205260409020546001600160a01b031615610f375760405162461bcd60e51b815260206004820152601c60248201527f4552433732313a20746f6b656e20616c7265616479206d696e7465640000000060448201526064016103d3565b610f4360008383610fca565b6001600160a01b0382166000908152600360205260408120805460019290610f6c9084906116c2565b909155505060008181526002602052604080822080546001600160a01b0319166001600160a01b03861690811790915590518392907fddf252ad1be2c89b69c2b068fc378daa952ba7f163c4a11628f55a4df523b3ef908290a45050565b6001600160a01b0383166110255761102081600880546000838152600960205260408120829055600182018355919091527ff3f7a9fe364faab93b216da50a3214154f22a0a2b415b23a84c8169e8b636ee30155565b611048565b816001600160a01b0316836001600160a01b03161461104857611048838261118f565b6001600160a01b03821661105f576105098161122c565b826001600160a01b0316826001600160a01b031614610509576105098282611305565b60006001600160a01b0384163b1561118457604051630a85bd0160e11b81526001600160a01b0385169063150b7a02906110c69033908990889088906004016115cf565b602060405180830381600087803b1580156110e057600080fd5b505af1925050508015611110575060408051601f3d908101601f1916820190925261110d91810190611540565b60015b61116a573d80801561113e576040519150601f19603f3d011682016040523d82523d6000602084013e611143565b606091505b5080516111625760405162461bcd60e51b81526004016103d39061161f565b805181602001fd5b6001600160e01b031916630a85bd0160e11b149050610b7c565b506001949350505050565b6000600161119c84610708565b6111a691906116ee565b6000838152600760205260409020549091508082146111f9576001600160a01b03841660009081526006602090815260408083208584528252808320548484528184208190558352600790915290208190555b5060009182526007602090815260408084208490556001600160a01b039094168352600681528383209183525290812055565b60085460009061123e906001906116ee565b6000838152600960205260408120546008805493945090928490811061127457634e487b7160e01b600052603260045260246000fd5b9060005260206000200154905080600883815481106112a357634e487b7160e01b600052603260045260246000fd5b60009182526020808320909101929092558281526009909152604080822084905585825281205560088054806112e957634e487b7160e01b600052603160045260246000fd5b6001900381819060005260206000200160009055905550505050565b600061131083610708565b6001600160a01b039093166000908152600660209081526040808320868452825280832085905593825260079052919091209190915550565b80356001600160a01b038116811461136057600080fd5b919050565b600060208284031215611376578081fd5b6109a182611349565b60008060408385031215611391578081fd5b61139a83611349565b91506113a860208401611349565b90509250929050565b6000806000606084860312156113c5578081fd5b6113ce84611349565b92506113dc60208501611349565b9150604084013590509250925092565b60008060008060808587031215611401578081fd5b61140a85611349565b935061141860208601611349565b925060408501359150606085013567ffffffffffffffff8082111561143b578283fd5b818701915087601f83011261144e578283fd5b813581811115611460576114606117c7565b604051601f8201601f19908116603f01168101908382118183101715611488576114886117c7565b816040528281528a60208487010111156114a0578586fd5b82602086016020830137918201602001949094529598949750929550505050565b600080604083850312156114d3578182fd5b6114dc83611349565b9150602083013580151581146114f0578182fd5b809150509250929050565b6000806040838503121561150d578182fd5b61151683611349565b946020939093013593505050565b600060208284031215611535578081fd5b81356109a1816117dd565b600060208284031215611551578081fd5b81516109a1816117dd565b60006020828403121561156d578081fd5b5035919050565b6000815180845261158c816020860160208601611705565b601f01601f19169290920160200192915050565b600083516115b2818460208801611705565b8351908301906115c6818360208801611705565b01949350505050565b6001600160a01b038581168252841660208201526040810183905260806060820181905260009061160290830184611574565b9695505050505050565b6020815260006109a16020830184611574565b60208082526032908201527f4552433732313a207472616e7366657220746f206e6f6e20455243373231526560408201527131b2b4bb32b91034b6b83632b6b2b73a32b960711b606082015260800190565b60208082526031908201527f4552433732313a207472616e736665722063616c6c6572206973206e6f74206f6040820152701ddb995c881b9bdc88185c1c1c9bdd9959607a1b606082015260800190565b600082198211156116d5576116d561179b565b500190565b6000826116e9576116e96117b1565b500490565b6000828210156117005761170061179b565b500390565b60005b83811015611720578181015183820152602001611708565b838111156108955750506000910152565b600181811c9082168061174557607f821691505b6020821081141561176657634e487b7160e01b600052602260045260246000fd5b50919050565b60006000198214156117805761178061179b565b5060010190565b600082611796576117966117b1565b500690565b634e487b7160e01b600052601160045260246000fd5b634e487b7160e01b600052601260045260246000fd5b634e487b7160e01b600052604160045260246000fd5b6001600160e01b0319811681146117f357600080fd5b5056fea26469706673582212200db1ec2680951a6697d2fb745488fcdb7c4fd0e11bb60f43b860577470c73b0f64736f6c63430008040033",
  "linkReferences": {},
  "deployedLinkReferences": {}
}