{
  "_format": "hh-sol-artifact-1",
  "contractName": "ClockAuction",
  "sourceName": "contracts/ClockAuction.sol",
  "abi": [
    {
      "inputs": [
        {
          "internalType": "uint256",
          "name": "_cut",
          "type": "uint256"
        }
      ],
      "stateMutability": "nonpayable",
      "type": "constructor"
    },
    {
      "anonymous": false,
      "inputs": [
        {
          "indexed": true,
          "internalType": "address",
          "name": "nftAddress",
          "type": "address"
        },
        {
          "indexed": true,
          "internalType": "uint256",
          "name": "tokenId",
          "type": "uint256"
        }
      ],
      "name": "AuctionCancelled",
      "type": "event"
    },
    {
      "anonymous": false,
      "inputs": [
        {
          "indexed": true,
          "internalType": "address",
          "name": "nftAddress",
          "type": "address"
        },
        {
          "indexed": true,
          "internalType": "uint256",
          "name": "tokenId",
          "type": "uint256"
        },
        {
          "indexed": true,
          "internalType": "uint256",
          "name": "startingPrice",
          "type": "uint256"
        },
        {
          "indexed": false,
          "internalType": "uint256",
          "name": "endingPrice",
          "type": "uint256"
        },
        {
          "indexed": false,
          "internalType": "uint256",
          "name": "duration",
          "type": "uint256"
        }
      ],
      "name": "AuctionCreated",
      "type": "event"
    },
    {
      "anonymous": false,
      "inputs": [
        {
          "indexed": true,
          "internalType": "address",
          "name": "nftAddress",
          "type": "address"
        },
        {
          "indexed": true,
          "internalType": "uint256",
          "name": "tokenId",
          "type": "uint256"
        },
        {
          "indexed": true,
          "internalType": "uint256",
          "name": "totalPrice",
          "type": "uint256"
        },
        {
          "indexed": false,
          "internalType": "address",
          "name": "winner",
          "type": "address"
        }
      ],
      "name": "AuctionSuccessful",
      "type": "event"
    },
    {
      "anonymous": false,
      "inputs": [
        {
          "indexed": true,
          "internalType": "address",
          "name": "previousOwner",
          "type": "address"
        },
        {
          "indexed": true,
          "internalType": "address",
          "name": "newOwner",
          "type": "address"
        }
      ],
      "name": "OwnershipTransferred",
      "type": "event"
    },
    {
      "anonymous": false,
      "inputs": [],
      "name": "Pause",
      "type": "event"
    },
    {
      "anonymous": false,
      "inputs": [],
      "name": "Unpause",
      "type": "event"
    },
    {
      "stateMutability": "payable",
      "type": "fallback"
    },
    {
      "inputs": [
        {
          "internalType": "address",
          "name": "_nftAddress",
          "type": "address"
        },
        {
          "internalType": "uint256",
          "name": "_tokenId",
          "type": "uint256"
        }
      ],
      "name": "bid",
      "outputs": [],
      "stateMutability": "payable",
      "type": "function"
    },
    {
      "inputs": [
        {
          "internalType": "address",
          "name": "_nftAddress",
          "type": "address"
        },
        {
          "internalType": "uint256",
          "name": "_tokenId",
          "type": "uint256"
        }
      ],
      "name": "cancelAuction",
      "outputs": [],
      "stateMutability": "nonpayable",
      "type": "function"
    },
    {
      "inputs": [
        {
          "internalType": "address",
          "name": "_nftAddress",
          "type": "address"
        },
        {
          "internalType": "uint256",
          "name": "_tokenId",
          "type": "uint256"
        }
      ],
      "name": "cancelAuctionWhenPaused",
      "outputs": [],
      "stateMutability": "nonpayable",
      "type": "function"
    },
    {
      "inputs": [
        {
          "internalType": "address",
          "name": "_nftAddress",
          "type": "address"
        },
        {
          "internalType": "uint256",
          "name": "_tokenId",
          "type": "uint256"
        },
        {
          "internalType": "uint256",
          "name": "_startingPrice",
          "type": "uint256"
        },
        {
          "internalType": "uint256",
          "name": "_endingPrice",
          "type": "uint256"
        },
        {
          "internalType": "uint256",
          "name": "_duration",
          "type": "uint256"
        },
        {
          "internalType": "address",
          "name": "_seller",
          "type": "address"
        }
      ],
      "name": "createAuction",
      "outputs": [],
      "stateMutability": "nonpayable",
      "type": "function"
    },
    {
      "inputs": [
        {
          "internalType": "address",
          "name": "_nftAddress",
          "type": "address"
        },
        {
          "internalType": "uint256",
          "name": "_tokenId",
          "type": "uint256"
        }
      ],
      "name": "getAuction",
      "outputs": [
        {
          "internalType": "address",
          "name": "seller",
          "type": "address"
        },
        {
          "internalType": "uint256",
          "name": "startingPrice",
          "type": "uint256"
        },
        {
          "internalType": "uint256",
          "name": "endingPrice",
          "type": "uint256"
        },
        {
          "internalType": "uint256",
          "name": "duration",
          "type": "uint256"
        },
        {
          "internalType": "uint256",
          "name": "startedAt",
          "type": "uint256"
        }
      ],
      "stateMutability": "view",
      "type": "function"
    },
    {
      "inputs": [
        {
          "internalType": "address",
          "name": "_nftAddress",
          "type": "address"
        },
        {
          "internalType": "uint256",
          "name": "_tokenId",
          "type": "uint256"
        }
      ],
      "name": "getCurrentPrice",
      "outputs": [
        {
          "internalType": "uint256",
          "name": "",
          "type": "uint256"
        }
      ],
      "stateMutability": "view",
      "type": "function"
    },
    {
      "inputs": [],
      "name": "owner",
      "outputs": [
        {
          "internalType": "address",
          "name": "",
          "type": "address"
        }
      ],
      "stateMutability": "view",
      "type": "function"
    },
    {
      "inputs": [],
      "name": "ownerCut",
      "outputs": [
        {
          "internalType": "uint256",
          "name": "",
          "type": "uint256"
        }
      ],
      "stateMutability": "view",
      "type": "function"
    },
    {
      "inputs": [],
      "name": "pause",
      "outputs": [],
      "stateMutability": "nonpayable",
      "type": "function"
    },
    {
      "inputs": [],
      "name": "paused",
      "outputs": [
        {
          "internalType": "bool",
          "name": "",
          "type": "bool"
        }
      ],
      "stateMutability": "view",
      "type": "function"
    },
    {
      "inputs": [],
      "name": "renounceOwnership",
      "outputs": [],
      "stateMutability": "nonpayable",
      "type": "function"
    },
    {
      "inputs": [
        {
          "internalType": "address",
          "name": "newOwner",
          "type": "address"
        }
      ],
      "name": "transferOwnership",
      "outputs": [],
      "stateMutability": "nonpayable",
      "type": "function"
    },
    {
      "inputs": [],
      "name": "unpause",
      "outputs": [],
      "stateMutability": "nonpayable",
      "type": "function"
    },
    {
      "inputs": [],
      "name": "withdrawBalance",
      "outputs": [],
      "stateMutability": "nonpayable",
      "type": "function"
    },
    {
      "stateMutability": "payable",
      "type": "receive"
    }
  ],
  "bytecode": "0x60806040526000805460ff60a01b1916905534801561001d57600080fd5b5060405161113438038061113483398101604081905261003c916100ac565b6100453361005c565b61271081111561005457600080fd5b6001556100c4565b600080546001600160a01b038381166001600160a01b0319831681178455604051919092169283917f8be0079c531659141344cd1fd0a4f28419497f9722a3daafe3b4186f6b6457e09190a35050565b6000602082840312156100bd578081fd5b5051919050565b611061806100d36000396000f3fe6080604052600436106100d55760003560e01c8063762a66a211610079578063859b97fe11610056578063859b97fe146102315780638da5cb5b14610251578063e6effbe914610279578063f2fde38b1461029957005b8063762a66a2146101b457806383b5ff8b146102065780638456cb591461021c57005b80635c975abb116100b25780635c975abb146101265780635fd8c7101461015c5780636c54df5214610171578063715018a61461019f57005b80631ae6b6ee146100de5780633f4ba83a146100fe57806359d667a51461011357005b366100dc57005b005b3480156100ea57600080fd5b506100dc6100f9366004610db2565b6102b9565b34801561010a57600080fd5b506100dc610363565b6100dc610121366004610db2565b6103d9565b34801561013257600080fd5b5060005461014790600160a01b900460ff1681565b60405190151581526020015b60405180910390f35b34801561016857600080fd5b506100dc61040b565b34801561017d57600080fd5b5061019161018c366004610db2565b610451565b604051908152602001610153565b3480156101ab57600080fd5b506100dc6104a3565b3480156101c057600080fd5b506101d46101cf366004610db2565b6104d9565b604080516001600160a01b0390961686526020860194909452928401919091526060830152608082015260a001610153565b34801561021257600080fd5b5061019160015481565b34801561022857600080fd5b506100dc610576565b34801561023d57600080fd5b506100dc61024c366004610db2565b6105f3565b34801561025d57600080fd5b506000546040516001600160a01b039091168152602001610153565b34801561028557600080fd5b506100dc610294366004610ddd565b61065f565b3480156102a557600080fd5b506100dc6102b4366004610d7a565b610787565b600054600160a01b900460ff166102cf57600080fd5b6000546001600160a01b031633146103025760405162461bcd60e51b81526004016102f990610e3a565b60405180910390fd5b6001600160a01b038216600090815260026020908152604080832084845290915290206003810154600160401b90046001600160401b031661034357600080fd5b600181015461035e90849084906001600160a01b031661081f565b505050565b6000546001600160a01b0316331461038d5760405162461bcd60e51b81526004016102f990610e3a565b600054600160a01b900460ff166103a357600080fd5b6000805460ff60a01b191681556040517f7805862f689e2f13df9f062ff482ad3ad112aca9e0847911ed832e158c525b339190a1565b600054600160a01b900460ff16156103f057600080fd5b6103fb82823461086f565b5061040782338361098a565b5050565b6000546001600160a01b0316331461042257600080fd5b60405133904780156108fc02916000818181858888f1935050505015801561044e573d6000803e3d6000fd5b50565b6001600160a01b038216600090815260026020908152604080832084845290915281206003810154600160401b90046001600160401b031661049257600080fd5b61049b816109fc565b949350505050565b6000546001600160a01b031633146104cd5760405162461bcd60e51b81526004016102f990610e3a565b6104d76000610a79565b565b6001600160a01b0382166000908152600260209081526040808320848452909152812060038101548291829182918291600160401b90046001600160401b031661052257600080fd5b600181015460028201546003909201546001600160a01b03909116996001600160801b038084169a50600160801b90930490921697506001600160401b038082169750600160401b90910416945092505050565b6000546001600160a01b031633146105a05760405162461bcd60e51b81526004016102f990610e3a565b600054600160a01b900460ff16156105b757600080fd5b6000805460ff60a01b1916600160a01b1781556040517f6985a02210a168e66602d3235cb6db0e70f92b3ba4d376a33c0f3d9434bff6259190a1565b6001600160a01b038216600090815260026020908152604080832084845290915290206003810154600160401b90046001600160401b031661063457600080fd5b60018101546001600160a01b031633811461064e57600080fd5b61065984848361081f565b50505050565b600054600160a01b900460ff161561067657600080fd5b836001600160801b03811061068a57600080fd5b836001600160801b03811061069e57600080fd5b836001600160401b038111156106b357600080fd5b6106be89338a610ac9565b6106fe5760405162461bcd60e51b815260206004820152601160248201527014195c9b5a5cdcda5bdb8819195b9a5959607a1b60448201526064016102f9565b61070989338a610b5e565b60006040518060c001604052808b6001600160a01b03168152602001866001600160a01b03168152602001896001600160801b03168152602001886001600160801b03168152602001876001600160401b03168152602001426001600160401b0316815250905061077b8a8a83610b9c565b50505050505050505050565b6000546001600160a01b031633146107b15760405162461bcd60e51b81526004016102f990610e3a565b6001600160a01b0381166108165760405162461bcd60e51b815260206004820152602660248201527f4f776e61626c653a206e6577206f776e657220697320746865207a65726f206160448201526564647265737360d01b60648201526084016102f9565b61044e81610a79565b6108298383610cb2565b61083483828461098a565b60405182906001600160a01b038516907f018b64b6242d32aa550e95d78985b938d71af5b3f10827b0683f55da1639304890600090a3505050565b6001600160a01b038316600090815260026020908152604080832085845290915281206003810154600160401b90046001600160401b03166108b057600080fd5b60006108bb826109fc565b9050808410156108ca57600080fd5b60018201546001600160a01b03166108e28787610cb2565b811561093e5760006108f383610d09565b905060006109018285610fd3565b6040519091506001600160a01b0384169082156108fc029083906000818181858888f1935050505015801561093a573d6000803e3d6000fd5b5050505b604051338152829087906001600160a01b038a16907f6c00bb44a64da29b6a73920d50ff280237d277bda3e1f3cdf4e24392e6839efe9060200160405180910390a45095945050505050565b6040516323b872dd60e01b81523060048201526001600160a01b038381166024830152604482018390528491908216906323b872dd906064015b600060405180830381600087803b1580156109de57600080fd5b505af11580156109f2573d6000803e3d6000fd5b5050505050505050565b60038101546000908190600160401b90046001600160401b0316421115610a3f576003830154610a3c90600160401b90046001600160401b031642610fd3565b90505b60028301546003840154610a72916001600160801b0380821692600160801b90920416906001600160401b031684610d2c565b9392505050565b600080546001600160a01b038381166001600160a01b0319831681178455604051919092169283917f8be0079c531659141344cd1fd0a4f28419497f9722a3daafe3b4186f6b6457e09190a35050565b6040516331a9108f60e11b81526004810182905260009084906001600160a01b038086169190831690636352211e9060240160206040518083038186803b158015610b1357600080fd5b505afa158015610b27573d6000803e3d6000fd5b505050506040513d601f19601f82011682018060405250810190610b4b9190610d96565b6001600160a01b03161495945050505050565b6040516323b872dd60e01b81526001600160a01b038381166004830152306024830152604482018390528491908216906323b872dd906064016109c4565b603c81608001516001600160401b03161015610bb757600080fd5b6001600160a01b038084166000818152600260208181526040808420888552825292839020865181549087166001600160a01b031991821617825591870151600182018054919097169216919091179094558185015160608601516001600160801b03908116600160801b8102919092169081179286019290925560808601516003909501805460a08801516001600160401b03908116600160401b026001600160801b0319929092169716968717179055915190938693927fb0c0552f858e630668cc4c58a1b7d1bd302efa77c15d8ec0f1fe725053c5980192610ca59290918252602082015260400190565b60405180910390a4505050565b6001600160a01b03909116600090815260026020818152604080842094845293905291812080546001600160a01b0319908116825560018201805490911690559182015560030180546001600160801b0319169055565b600061271060015483610d1c9190610f75565b610d269190610ede565b92915050565b6000828210610d3c57508261049b565b6000610d488686610f94565b9050600084610d578584610ef2565b610d619190610eb0565b90506000610d6f8289610e6f565b935061049b92505050565b600060208284031215610d8b578081fd5b8135610a7281611016565b600060208284031215610da7578081fd5b8151610a7281611016565b60008060408385031215610dc4578081fd5b8235610dcf81611016565b946020939093013593505050565b60008060008060008060c08789031215610df5578182fd5b8635610e0081611016565b95506020870135945060408701359350606087013592506080870135915060a0870135610e2c81611016565b809150509295509295509295565b6020808252818101527f4f776e61626c653a2063616c6c6572206973206e6f7420746865206f776e6572604082015260600190565b600080821280156001600160ff1b0384900385131615610e9157610e91610fea565b600160ff1b8390038412811615610eaa57610eaa610fea565b50500190565b600082610ebf57610ebf611000565b600160ff1b821460001984141615610ed957610ed9610fea565b500590565b600082610eed57610eed611000565b500490565b60006001600160ff1b0381841382841380821686840486111615610f1857610f18610fea565b600160ff1b84871282811687830589121615610f3657610f36610fea565b858712925087820587128484161615610f5157610f51610fea565b87850587128184161615610f6757610f67610fea565b505050929093029392505050565b6000816000190483118215151615610f8f57610f8f610fea565b500290565b60008083128015600160ff1b850184121615610fb257610fb2610fea565b6001600160ff1b0384018313811615610fcd57610fcd610fea565b50500390565b600082821015610fe557610fe5610fea565b500390565b634e487b7160e01b600052601160045260246000fd5b634e487b7160e01b600052601260045260246000fd5b6001600160a01b038116811461044e57600080fdfea264697066735822122089cf08f101a62298650ee8d6cb0326370f5e7752834bf5ae8552de28713dbb0f64736f6c63430008040033",
  "linkReferences": {},
  "deployedLinkReferences": {}
}