{
  "contractName": "Auction",
  "abi": [
    {
      "constant": true,
      "inputs": [],
      "name": "tokenAddress",
      "outputs": [
        {
          "name": "",
          "type": "address"
        }
      ],
      "payable": false,
      "stateMutability": "view",
      "type": "function"
    },
    {
      "constant": true,
      "inputs": [
        {
          "name": "",
          "type": "uint256"
        }
      ],
      "name": "allProducts",
      "outputs": [
        {
          "name": "",
          "type": "uint256"
        }
      ],
      "payable": false,
      "stateMutability": "view",
      "type": "function"
    },
    {
      "constant": true,
      "inputs": [
        {
          "name": "",
          "type": "uint256"
        }
      ],
      "name": "prodcutMap",
      "outputs": [
        {
          "name": "prodcutId",
          "type": "uint256"
        },
        {
          "name": "seller",
          "type": "address"
        },
        {
          "name": "buyer",
          "type": "address"
        },
        {
          "name": "lowestPrice",
          "type": "uint256"
        },
        {
          "name": "highestPrice",
          "type": "uint256"
        },
        {
          "name": "nftTokenId",
          "type": "uint256"
        },
        {
          "name": "desc",
          "type": "string"
        },
        {
          "name": "status",
          "type": "uint8"
        }
      ],
      "payable": false,
      "stateMutability": "view",
      "type": "function"
    },
    {
      "inputs": [
        {
          "name": "_tokenAddress",
          "type": "address"
        }
      ],
      "payable": false,
      "stateMutability": "nonpayable",
      "type": "constructor"
    },
    {
      "payable": true,
      "stateMutability": "payable",
      "type": "fallback"
    },
    {
      "anonymous": false,
      "inputs": [
        {
          "indexed": false,
          "name": "buyer",
          "type": "address"
        },
        {
          "indexed": false,
          "name": "price",
          "type": "uint256"
        }
      ],
      "name": "HighestPriceIncrease",
      "type": "event"
    },
    {
      "anonymous": false,
      "inputs": [
        {
          "indexed": false,
          "name": "winner",
          "type": "address"
        },
        {
          "indexed": false,
          "name": "amount",
          "type": "uint256"
        }
      ],
      "name": "AcutionEnded",
      "type": "event"
    },
    {
      "anonymous": false,
      "inputs": [
        {
          "indexed": false,
          "name": "seller",
          "type": "address"
        },
        {
          "indexed": false,
          "name": "lowestPrice",
          "type": "uint256"
        },
        {
          "indexed": false,
          "name": "nftTokenId",
          "type": "uint256"
        },
        {
          "indexed": false,
          "name": "desc",
          "type": "string"
        }
      ],
      "name": "publishProducted",
      "type": "event"
    },
    {
      "constant": false,
      "inputs": [
        {
          "name": "_lowestPrice",
          "type": "uint256"
        },
        {
          "name": "_nftTokenId",
          "type": "uint256"
        },
        {
          "name": "_desc",
          "type": "string"
        }
      ],
      "name": "publishProduct",
      "outputs": [],
      "payable": false,
      "stateMutability": "nonpayable",
      "type": "function"
    },
    {
      "constant": false,
      "inputs": [
        {
          "name": "_productId",
          "type": "uint256"
        }
      ],
      "name": "bid",
      "outputs": [],
      "payable": true,
      "stateMutability": "payable",
      "type": "function"
    },
    {
      "constant": false,
      "inputs": [
        {
          "name": "_productId",
          "type": "uint256"
        }
      ],
      "name": "acutionEnd",
      "outputs": [],
      "payable": true,
      "stateMutability": "payable",
      "type": "function"
    }
  ],
  "bytecode": "0x608060405234801561001057600080fd5b50604051602080610cb78339810180604052810190808051906020019092919050505080600160006101000a81548173ffffffffffffffffffffffffffffffffffffffff021916908373ffffffffffffffffffffffffffffffffffffffff16021790555050610c33806100846000396000f300608060405260043610610078576000357c0100000000000000000000000000000000000000000000000000000000900463ffffffff168063454a2ab31461007a5780639d76ea581461009a578063a341131d146100f1578063afed7ad114610111578063cfaaef561461018e578063f297be87146101cf575b005b61009860048036038101908080359060200190929190505050610304565b005b3480156100a657600080fd5b506100af61042f565b604051808273ffffffffffffffffffffffffffffffffffffffff1673ffffffffffffffffffffffffffffffffffffffff16815260200191505060405180910390f35b61010f60048036038101908080359060200190929190505050610455565b005b34801561011d57600080fd5b5061018c6004803603810190808035906020019092919080359060200190929190803590602001908201803590602001908080601f0160208091040260200160405190810160405280939291908181526020018383808284378201915050505050509192919290505050610649565b005b34801561019a57600080fd5b506101b9600480360381019080803590602001909291905050506109ee565b6040518082815260200191505060405180910390f35b3480156101db57600080fd5b506101fa60048036038101908080359060200190929190505050610a11565b604051808981526020018873ffffffffffffffffffffffffffffffffffffffff1673ffffffffffffffffffffffffffffffffffffffff1681526020018773ffffffffffffffffffffffffffffffffffffffff1673ffffffffffffffffffffffffffffffffffffffff168152602001868152602001858152602001848152602001806020018360ff1660ff168152602001828103825284818151815260200191508051906020019080838360005b838110156102c25780820151818401526020810190506102a7565b50505050905090810190601f1680156102ef5780820380516001836020036101000a031916815260200191505b50995050505050505050505060405180910390f35b600060036000838152602001908152602001600020905080600401543411151561032d57600080fd5b338160020160006101000a81548173ffffffffffffffffffffffffffffffffffffffff021916908373ffffffffffffffffffffffffffffffffffffffff1602179055503481600401819055503073ffffffffffffffffffffffffffffffffffffffff166108fc349081150290604051600060405180830381858888f193505050501580156103bf573d6000803e3d6000fd5b507f8d9458907a301977a77bbb9c934930242e2c24bfd23da21d28505a17d31c548a3334604051808373ffffffffffffffffffffffffffffffffffffffff1673ffffffffffffffffffffffffffffffffffffffff1681526020018281526020019250505060405180910390a15050565b600160009054906101000a900473ffffffffffffffffffffffffffffffffffffffff1681565b60006003600083815260200190815260200160002090508060010160009054906101000a900473ffffffffffffffffffffffffffffffffffffffff1673ffffffffffffffffffffffffffffffffffffffff163373ffffffffffffffffffffffffffffffffffffffff161415156104ca57600080fd5b600073ffffffffffffffffffffffffffffffffffffffff168160020160009054906101000a900473ffffffffffffffffffffffffffffffffffffffff1673ffffffffffffffffffffffffffffffffffffffff16141515610594578060010160009054906101000a900473ffffffffffffffffffffffffffffffffffffffff1673ffffffffffffffffffffffffffffffffffffffff166108fc82600401549081150290604051600060405180830381858888f19350505050158015610592573d6000803e3d6000fd5b505b60018160070160006101000a81548160ff021916908360ff1602179055507f917fd6d893e435f61cf143a3149d8db6cd1e06c6367f7448bda8e98d75e202f68160020160009054906101000a900473ffffffffffffffffffffffffffffffffffffffff168260040154604051808373ffffffffffffffffffffffffffffffffffffffff1673ffffffffffffffffffffffffffffffffffffffff1681526020018281526020019250505060405180910390a15050565b6000600160009054906101000a900473ffffffffffffffffffffffffffffffffffffffff1673ffffffffffffffffffffffffffffffffffffffff16636352211e846040518263ffffffff167c010000000000000000000000000000000000000000000000000000000002815260040180828152602001915050602060405180830381600087803b1580156106dc57600080fd5b505af11580156106f0573d6000803e3d6000fd5b505050506040513d602081101561070657600080fd5b810190808051906020019092919050505073ffffffffffffffffffffffffffffffffffffffff163373ffffffffffffffffffffffffffffffffffffffff1614151561075057600080fd5b61075a6000610b3e565b6107646000610b54565b90506002819080600181540180825580915050906001820390600052602060002001600090919290919091505550610100604051908101604052808281526020013373ffffffffffffffffffffffffffffffffffffffff168152602001600073ffffffffffffffffffffffffffffffffffffffff168152602001858152602001858152602001848152602001838152602001600060ff16815250600360008381526020019081526020016000206000820151816000015560208201518160010160006101000a81548173ffffffffffffffffffffffffffffffffffffffff021916908373ffffffffffffffffffffffffffffffffffffffff16021790555060408201518160020160006101000a81548173ffffffffffffffffffffffffffffffffffffffff021916908373ffffffffffffffffffffffffffffffffffffffff160217905550606082015181600301556080820151816004015560a0820151816005015560c08201518160060190805190602001906108e3929190610b62565b5060e08201518160070160006101000a81548160ff021916908360ff1602179055509050507f680871b0d210d52045eb98f2e35f6114899f58a691de4ea33cc669ee3227797333858585604051808573ffffffffffffffffffffffffffffffffffffffff1673ffffffffffffffffffffffffffffffffffffffff16815260200184815260200183815260200180602001828103825283818151815260200191508051906020019080838360005b838110156109ab578082015181840152602081019050610990565b50505050905090810190601f1680156109d85780820380516001836020036101000a031916815260200191505b509550505050505060405180910390a150505050565b6002818154811015156109fd57fe5b906000526020600020016000915090505481565b60036020528060005260406000206000915090508060000154908060010160009054906101000a900473ffffffffffffffffffffffffffffffffffffffff16908060020160009054906101000a900473ffffffffffffffffffffffffffffffffffffffff1690806003015490806004015490806005015490806006018054600181600116156101000203166002900480601f016020809104026020016040519081016040528092919081815260200182805460018160011615610100020316600290048015610b215780601f10610af657610100808354040283529160200191610b21565b820191906000526020600020905b815481529060010190602001808311610b0457829003601f168201915b5050505050908060070160009054906101000a900460ff16905088565b6001816000016000828254019250508190555050565b600081600001549050919050565b828054600181600116156101000203166002900490600052602060002090601f016020900481019282601f10610ba357805160ff1916838001178555610bd1565b82800160010185558215610bd1579182015b82811115610bd0578251825591602001919060010190610bb5565b5b509050610bde9190610be2565b5090565b610c0491905b80821115610c00576000816000905550600101610be8565b5090565b905600a165627a7a723058205e4f13f179e0e7669c1b0e3c5af660c506dfdf00284f6b84b8d9caed7846eda80029",
  "source": "pragma solidity >=0.4.22 <0.9.0;\nimport \"./Counter.sol\";\nimport \"./NBToken.sol\";\ncontract Auction  {\n    using Counters for Counters.Counter;\n    Counters.Counter private prodcutId;\n\n    NBToken public tokenAddress;  //NBToken实例化\n    uint256[] public allProducts; //所有拍卖商品ID\n    mapping(uint256=>Product) public prodcutMap; //商品ID和商品映射\n    struct Product{\n        uint256 prodcutId; //商品ID\n        address seller;   //卖家\n        address buyer; //买家\n        uint256 lowestPrice; //最低价\n        uint256 highestPrice; //最高价\n        uint256 nftTokenId; //nft tokenID\n        string desc; //描述\n        uint8 status; //状态\n    }\n    \n    //声明事件，改变时会触发事件\n    event HighestPriceIncrease(address buyer,uint price);\n    event AcutionEnded(address winner,uint amount);\n    event publishProducted(address seller,uint256 lowestPrice,uint256 nftTokenId,string desc);\n    \n    constructor (address _tokenAddress) public{\n        tokenAddress = NBToken(_tokenAddress);\n    }\n    //发布商品\n    function publishProduct(uint256 _lowestPrice,uint256 _nftTokenId,string _desc) public{\n        require(msg.sender == tokenAddress.ownerOf(_nftTokenId));\n         prodcutId.increment();\n         uint256 newProdcutId = prodcutId.current();\n        allProducts.push(newProdcutId);\n        prodcutMap[newProdcutId] = Product(newProdcutId,msg.sender,address(0),_lowestPrice,_lowestPrice,_nftTokenId,_desc,0);\n        emit publishProducted(msg.sender,_lowestPrice,_nftTokenId,_desc);\n    }\n\n    //竞拍出价\n    function bid(uint256 _productId) payable  public {\n        Product storage product = prodcutMap[_productId];\n        //判断此账户出价是否高于最高出价\n        require(msg.value > product.highestPrice);\n        product.buyer = msg.sender;\n        product.highestPrice = msg.value;\n        address(this).transfer(msg.value);\n        emit HighestPriceIncrease(msg.sender,msg.value);   \n    }\n    //拍卖结束后发送最高出价给受益人\n    function acutionEnd(uint256 _productId) payable public{\n        Product storage product = prodcutMap[_productId];\n        require(msg.sender == product.seller);\n        if(product.buyer != address(0)){\n         product.seller.transfer(product.highestPrice);\n        //  tokenAddress.approve(product.buyer,product.nftTokenId);\n        //  tokenAddress.transferFrom(product.seller,product.buyer,product.nftTokenId);\n        }\n        product.status = 1;\n        //触发结束事件\n        emit AcutionEnded(product.buyer,product.highestPrice);\n      \n    }\n\n    function() public payable{\n        \n    }\n}\n\n",
  "sourcePath": "/Users/wangningbo/IdeaProjects/Auction/contracts/Auction.sol",
  "compiler": {
    "name": "solc",
    "version": "0.4.24+commit.e67f0147.Emscripten.clang"
  },
  "schemaVersion": "3.4.2",
  "updatedAt": "2021-08-22T15:53:00.528Z",
  "devdoc": {
    "methods": {}
  },
  "userdoc": {
    "methods": {}
  }
}